{
  "contractName": "Remittance",
  "abi": [
    {
      "constant": true,
      "inputs": [
        {
          "name": "",
          "type": "bytes32"
        }
      ],
      "name": "remittances",
      "outputs": [
        {
          "name": "sentBy",
          "type": "address"
        },
        {
          "name": "balance",
          "type": "uint256"
        }
      ],
      "payable": false,
      "stateMutability": "view",
      "type": "function"
    },
    {
      "payable": false,
      "stateMutability": "nonpayable",
      "type": "fallback"
    },
    {
      "anonymous": false,
      "inputs": [
        {
          "indexed": true,
          "name": "from",
          "type": "address"
        },
        {
          "indexed": true,
          "name": "target",
          "type": "bytes32"
        },
        {
          "indexed": false,
          "name": "value",
          "type": "uint256"
        }
      ],
      "name": "Deposit",
      "type": "event"
    },
    {
      "anonymous": false,
      "inputs": [
        {
          "indexed": true,
          "name": "to",
          "type": "address"
        },
        {
          "indexed": true,
          "name": "target",
          "type": "bytes32"
        },
        {
          "indexed": false,
          "name": "value",
          "type": "uint256"
        }
      ],
      "name": "Withdraw",
      "type": "event"
    },
    {
      "anonymous": false,
      "inputs": [
        {
          "indexed": true,
          "name": "from",
          "type": "address"
        },
        {
          "indexed": true,
          "name": "target",
          "type": "bytes32"
        },
        {
          "indexed": false,
          "name": "value",
          "type": "uint256"
        }
      ],
      "name": "Revoke",
      "type": "event"
    },
    {
      "constant": true,
      "inputs": [
        {
          "name": "approved",
          "type": "address"
        },
        {
          "name": "password",
          "type": "string"
        }
      ],
      "name": "genMagicHash",
      "outputs": [
        {
          "name": "magicHash",
          "type": "bytes32"
        }
      ],
      "payable": false,
      "stateMutability": "view",
      "type": "function"
    },
    {
      "constant": false,
      "inputs": [
        {
          "name": "password",
          "type": "string"
        }
      ],
      "name": "withdraw",
      "outputs": [],
      "payable": false,
      "stateMutability": "nonpayable",
      "type": "function"
    },
    {
      "constant": false,
      "inputs": [
        {
          "name": "magicHash",
          "type": "bytes32"
        }
      ],
      "name": "remit",
      "outputs": [],
      "payable": true,
      "stateMutability": "payable",
      "type": "function"
    },
    {
      "constant": false,
      "inputs": [
        {
          "name": "magicHash",
          "type": "bytes32"
        }
      ],
      "name": "revoke",
      "outputs": [],
      "payable": false,
      "stateMutability": "nonpayable",
      "type": "function"
    }
  ],
  "bytecode": "0x608060405234801561001057600080fd5b506109a8806100206000396000f30060806040526004361061006d576000357c0100000000000000000000000000000000000000000000000000000000900463ffffffff1680631fcf4de91461007f57806331fb67c2146100a35780639a7d49d01461010c5780639c922d2a146101b1578063b75c7dc614610229575b34801561007957600080fd5b50600080fd5b6100a1600480360381019080803560001916906020019092919050505061025a565b005b3480156100af57600080fd5b5061010a600480360381019080803590602001908201803590602001908080601f0160208091040260200160405190810160405280939291908181526020018383808284378201915050505050509192919290505050610449565b005b34801561011857600080fd5b50610193600480360381019080803573ffffffffffffffffffffffffffffffffffffffff169060200190929190803590602001908201803590602001908080601f016020809104026020016040519081016040528093929190818152602001838380828437820191505050505050919291929050505061059f565b60405180826000191660001916815260200191505060405180910390f35b3480156101bd57600080fd5b506101e060048036038101908080356000191690602001909291905050506106fe565b604051808373ffffffffffffffffffffffffffffffffffffffff1673ffffffffffffffffffffffffffffffffffffffff1681526020018281526020019250505060405180910390f35b34801561023557600080fd5b506102586004803603810190808035600019169060200190929190505050610742565b005b60008060008360001916600019168152602001908152602001600020905060008160000160009054906101000a900473ffffffffffffffffffffffffffffffffffffffff1673ffffffffffffffffffffffffffffffffffffffff1614151561032a576040517f08c379a000000000000000000000000000000000000000000000000000000000815260040180806020018281038252601c8152602001807f546869732072656d697474616e636520686173206265656e207365740000000081525060200191505060405180910390fd5b600081600101541415156103a6576040517f08c379a000000000000000000000000000000000000000000000000000000000815260040180806020018281038252601c8152602001807f546869732072656d697474616e636520686173206265656e207365740000000081525060200191505060405180910390fd5b81600019163373ffffffffffffffffffffffffffffffffffffffff167f19dacbf83c5de6658e14cbf7bcae5c15eca2eedecf1c66fbca928e4d351bea0f346040518082815260200191505060405180910390a3338160000160006101000a81548173ffffffffffffffffffffffffffffffffffffffff021916908373ffffffffffffffffffffffffffffffffffffffff1602179055503481600101819055505050565b6000806000610458338561059f565b925060008084600019166000191681526020019081526020016000209150816001015490506000811115156104f5576040517f08c379a000000000000000000000000000000000000000000000000000000000815260040180806020018281038252600c8152602001807f42616c616e63652069732030000000000000000000000000000000000000000081525060200191505060405180910390fd5b82600019163373ffffffffffffffffffffffffffffffffffffffff167fc3ded2be7db21b1af963f267d27750e4a15f174547d88b886b9bda43e2c6fa32836040518082815260200191505060405180910390a3600082600101819055503373ffffffffffffffffffffffffffffffffffffffff166108fc829081150290604051600060405180830381858888f19350505050158015610598573d6000803e3d6000fd5b5050505050565b6000308383604051602001808473ffffffffffffffffffffffffffffffffffffffff1673ffffffffffffffffffffffffffffffffffffffff166c010000000000000000000000000281526014018373ffffffffffffffffffffffffffffffffffffffff1673ffffffffffffffffffffffffffffffffffffffff166c0100000000000000000000000002815260140182805190602001908083835b60208310151561065e5780518252602082019150602081019050602083039250610639565b6001836020036101000a03801982511681845116808217855250505050505090500193505050506040516020818303038152906040526040518082805190602001908083835b6020831015156106c957805182526020820191506020810190506020830392506106a4565b6001836020036101000a0380198251168184511680821785525050505050509050019150506040518091039020905092915050565b60006020528060005260406000206000915090508060000160009054906101000a900473ffffffffffffffffffffffffffffffffffffffff16908060010154905082565b600080600080600085600019166000191681526020019081526020016000209250826001015491508260000160009054906101000a900473ffffffffffffffffffffffffffffffffffffffff1690508073ffffffffffffffffffffffffffffffffffffffff163373ffffffffffffffffffffffffffffffffffffffff1614151561085a576040517f08c379a00000000000000000000000000000000000000000000000000000000081526004018080602001828103825260218152602001807f4f6e6c792072656d69747465722063616e2063616c6c206261636b2066756e6481526020017f730000000000000000000000000000000000000000000000000000000000000081525060400191505060405180910390fd5b6000821115156108d2576040517f08c379a000000000000000000000000000000000000000000000000000000000815260040180806020018281038252601c8152602001807f546865726520617265206e6f2066756e647320746f207265766f6b650000000081525060200191505060405180910390fd5b83600019168173ffffffffffffffffffffffffffffffffffffffff167f596e6e7149b1bee6fbb4600421c0c1dbb6d8c930942e88d976ff16c5a4c36de4846040518082815260200191505060405180910390a3600083600101819055503373ffffffffffffffffffffffffffffffffffffffff166108fc839081150290604051600060405180830381858888f19350505050158015610975573d6000803e3d6000fd5b50505050505600a165627a7a7230582087f3a9140cfd2cc44121fe8343051da88010889063a2f237a76181d8cef0b7990029",
  "source": "pragma solidity ^0.4.23;\n\n/*\nA project contract for B9Lab's Ethereum Developer course\n*/\ncontract Remittance {\n\n    struct RemitStruct {\n        address sentBy;\n        uint balance;\n    }\n\n    mapping (bytes32 => RemitStruct) public remittances;\n\n    event Deposit(\n        address indexed from,\n        bytes32 indexed target,\n        uint value\n    );\n\n    event Withdraw(\n        address indexed to,\n        bytes32 indexed target,\n        uint value\n    );\n\n    event Revoke(\n        address indexed from,\n        bytes32 indexed target,\n        uint value\n    );\n\n    function genMagicHash(address approved, string password) public view returns (bytes32 magicHash) {\n        magicHash = keccak256(abi.encodePacked(this, approved, password));\n    }\n\n    function withdraw(string password) public {\n        bytes32 magicHash = genMagicHash(msg.sender, password);\n        RemitStruct storage remittance = remittances[magicHash];\n        uint available = remittance.balance;\n        require(available > 0, \"Balance is 0\");\n        emit Withdraw(msg.sender, magicHash, available);\n        remittance.balance = 0;\n        msg.sender.transfer(available);\n    }\n\n    function remit(bytes32 magicHash) public payable {\n        RemitStruct storage remittance = remittances[magicHash];\n        require(remittance.sentBy == 0, \"This remittance has been set\");\n        require(remittance.balance == 0, \"This remittance has been set\");\n        emit Deposit(msg.sender, magicHash, msg.value);\n        remittance.sentBy = msg.sender;\n        remittance.balance = msg.value;\n    }\n\n    function revoke(bytes32 magicHash) public {\n        RemitStruct storage remittance = remittances[magicHash];\n        uint available = remittance.balance;\n        address creator = remittance.sentBy;\n        require(msg.sender == creator, \"Only remitter can call back funds\");\n        require(available > 0, \"There are no funds to revoke\");\n        emit Revoke(creator, magicHash, available);\n        remittance.balance = 0;\n        msg.sender.transfer(available);\n    }\n\n    function () public {\n        revert();\n    }\n}\n",
  "sourcePath": "/Users/aleck/Code/Remittance/contracts/Remittance.sol",
  "compiler": {
    "name": "solc",
    "version": "0.4.24+commit.e67f0147.Emscripten.clang"
  },
  "schemaVersion": "2.0.0",
  "updatedAt": "2018-06-29T19:09:27.497Z"
}